:020000040800F2
:10000000008000206D250008B91E0008BB1E0008F6
:10001000BD1E0008BF1E0008C11E00080000000031
:10002000000000000000000000000000C31E0008E7
:10003000C51E000800000000C71E0008C91E0008F9
:10004000BD250008BD250008BD250008BD25000808
:10005000BD250008BD250008BD250008BD250008F8
:10006000BD250008BD250008BD250008D11E0008DB
:10007000E11E0008BD250008BD250008BD250008BB
:10008000BD25000800000000F11E0008BD25000885
:10009000BD250008091F0008BD250008BD25000872
:1000A000191F0008291F0008BD250008391F000876
:1000B000BD250008491F0008BD250008BD25000812
:1000C000BD250008BD250008BD250008BD25000888
:1000D000BD250008BD250008BD250008497C000895
:1000E000591F0008BD250008BD250008BD250008D2
:1000F000BD250008BD250008BD2500080000000042
:1001000000000000BD25000800000000BD2500081B
:10011000BD25000800000000BD250008BD25000821
:10012000BD250008BD250008BD250008BD25000827
:10013000BD2500080000000000000000BD250008EB
:10014000751F0008BD250008000000000000000029
:10015000000000000000000000000000000000009F
:10016000000000000000000000000000BD250008A5
:10017000BD25000800000000000000000000000095
:1001800000000000BD250008000000000000000085
:10019000000000000000000000000000000000005F
:1001A0000000000000000000BD250008BD2500087B
:1001B000BD250008BD250008BD2500080000000081
:1001C00000000000BD250008000000000000000045
:0801D000BD250008BD25000853
:1002000010B5054C237833B9044B13B10448AFF350
:1002100000800123237010BD580A00200000000058
:1002200070AE000808B5034B1BB103490348AFF398
:10023000008008BD000000005C0A002070AE0008CD
:1002400053B94AB9002908BF00281CBF4FF0FF313D
:100250004FF0FF3000F06EB9ADF1080C6DE904CE3F
:1002600000F006F8DDF804E0DDE9022304B0704791
:100270002DE9F047089D04468C46002B40F0838012
:100280008A42174647D9B2FA82F242B1C2F120003F
:1002900024FA00F09140974040EA010C94404FEA64
:1002A0001748230CBCFBF8F61FFA87FE08FB16C1A3
:1002B00043EA014306FB0EF1994209D9FB1806F106
:1002C000FF3080F01981994240F21681023E3B4492
:1002D0005B1AA4B2B3FBF8F008FB103344EA034402
:1002E00000FB0EFEA64509D93C1900F1FF3380F052
:1002F0000581A64540F2028102383C4440EA0640AE
:10030000A4EB0E0400261DB1D4400023C5E9004330
:100310003146BDE8F08702B9FFDEB2FA82F2002A68
:1003200050D1CB1B4FEA174E1FFA87F80126B3FBBB
:10033000FEFC210C0EFB1C3341EA034108FB0CF3CD
:100340008B4207D979180CF1FF3002D28B4200F2B0
:10035000E9808446C91AA3B2B1FBFEF00EFB10116E
:1003600043EA014408FB00F8A04507D93C1900F115
:10037000FF3302D2A04500F2D9801846A4EB08044E
:1003800040EA0C40BFE78B4209D9002D00F0B18054
:100390000026C5E9000130463146BDE8F087B3FAD2
:1003A00083F6002E4AD18B4202D3824200F2B880FB
:1003B000841A61EB030101208C46002DA8D0C5E909
:1003C000004CA5E7C2F1200320FA03F6974001FA9A
:1003D00002F04FEA174ED9403043030CB1FBFEF652
:1003E0001FFA87F80EFB161143EA014306FB08F1DA
:1003F000994204FA02F409D9FB1806F1FF3C80F097
:100400008D80994240F28A80023E3B445B1A81B261
:10041000B3FBFEF00EFB103341EA034100FB08F38F
:100420008B4207D9791800F1FF3C73D28B4271D906
:1004300002383944CB1A40EA064678E7C6F1200C68
:1004400003FA06F422FA0CF31C4320FA0CF701FA23
:1004500006F34FEA144E21FA0CF11F433B0CB1FB9B
:10046000FEF91FFA84F80EFB191143EA014109FB5A
:1004700008FA8A4502FA06F200FA06F308D961186A
:1004800009F1FF3048D28A4546D9A9F10209214431
:10049000A1EB0A01BFB2B1FBFEF00EFB101147EA5F
:1004A000014700FB08F8B84507D9E71900F1FF310B
:1004B0002ED2B8452CD90238274440EA0940A7EB90
:1004C0000807A0FB02894F45C64649461AD317D0F4
:1004D0005DB1B3EB0E0267EB010707FA0CFCF240CB
:1004E0004CEA0202F740C5E9002700263146BDE884
:1004F000F0872E4628460BE70646E9E61846FDE655
:100500004345E5D2B8EB020E69EB04010138DFE7A1
:100510000846D2E760468DE78146B9E7664675E74B
:1005200030464AE7ACF1020C394413E702383C4448
:1005300024E700BF704700BF844641EA000313F080
:1005400003036DD1403A41D351F8043B40F8043BDA
:1005500051F8043B40F8043B51F8043B40F8043B9D
:1005600051F8043B40F8043B51F8043B40F8043B8D
:1005700051F8043B40F8043B51F8043B40F8043B7D
:1005800051F8043B40F8043B51F8043B40F8043B6D
:1005900051F8043B40F8043B51F8043B40F8043B5D
:1005A00051F8043B40F8043B51F8043B40F8043B4D
:1005B00051F8043B40F8043B51F8043B40F8043B3D
:1005C00051F8043B40F8043B403ABDD2303211D3DD
:1005D00051F8043B40F8043B51F8043B40F8043B1D
:1005E00051F8043B40F8043B51F8043B40F8043B0D
:1005F000103AEDD20C3205D351F8043B40F8043BDD
:10060000043AF9D2043208D0D2071CBF11F8013BDA
:1006100000F8013B01D30B8803806046704700BFA0
:10062000082A13D38B078DD010F003038AD0C3F1AF
:100630000403D21ADB071CBF11F8013B00F8013B91
:1006400080D331F8023B20F8023B7BE7043AD9D350
:10065000013A11F8013B00F8013BF9D20B78037025
:100660004B7843708B7883706046704700000000C1
:1006700001F0FF01102A2BDB10F0070F08D010F853
:10068000013B013A8B422DD010F0070F42B3F6D157
:10069000F0B441EA012141EA014122F007047FF070
:1006A00000070023F0E80256083C85EA010586EAC7
:1006B000010685FA47F5A3FA87F586FA47F6A5FA03
:1006C00087F68EB9EED1F0BC01F0FF0102F007020F
:1006D00032B110F8013B013A83EA010313B1F8D1BA
:1006E0000020704701387047002D06BF354603389B
:1006F000073815F0010F07D1013015F4807F02BFD4
:10070000013015F4C03F0130F0BC0138704700BF24
:1007100000000000000000000000000000000000D9
:1007200000000000000000000000000000000000C9
:1007300000000000000000000000000000000000B9
:1007400090F800F06DE9024520F007016FF0000C11
:1007500010F0070491F820F040F049804FF00004B9
:100760006FF00700D1E9002391F840F000F1080094
:1007700082FA4CF2A4FA8CF283FA4CF3A2FA8CF3CC
:100780004BBBD1E9022382FA4CF200F10800A4FA33
:100790008CF283FA4CF3A2FA8CF3E3B9D1E9042387
:1007A00082FA4CF200F10800A4FA8CF283FA4CF3BE
:1007B000A2FA8CF37BB9D1E9062301F1200182FA78
:1007C0004CF200F10800A4FA8CF283FA4CF3A2FA7E
:1007D0008CF3002BC6D0002A04BF04301A4612BA8C
:1007E000B2FA82F2FDE8024500EBD2007047D1E98F
:1007F000002304F00305C4F100004FEAC50514F01E
:10080000040F91F840F00CFA05F562EA05021CBFEE
:1008100063EA050362464FF00004A9E7F0EE407A70
:10082000F5EEC00AF1EE10FA0ED9F4EEC00AF1EEC0
:1008300010FA18D4B1EE607AB4EEC07AF1EE10FA84
:1008400014DC87EEA00A7047B5EEC00AF1EE10FA8C
:1008500006DC02D49FED070A7047BFEE000A70471E
:10086000B7EE000A7047B7EE000A7047BFEE000A05
:10087000704700BF000000002DE9F0412DED048B12
:10088000044610EE108AF0EE608A11EE105AF0EE77
:10089000619A12EE107A12EE906AB0EE438AB0EED0
:1008A000639A402200210C3007F0FEFDC4F800805E
:1008B000DFED0E3A68EEA30AC4ED010AC4ED020AA8
:1008C00029EE239A84ED0A9AE761266284ED098A6B
:1008D000A56328EE298A84ED0F8A054B6364054BD6
:1008E000A364BDEC048BBDE8F08100BFDB0FC94001
:1008F00000802245008022C510B52DED088B82B006
:100900000446B0EE408AF0EE608AD0ED039A90ED96
:10091000049A39EE61BA90ED00AAF0EE000A39EEC1
:10092000C10AFFF77BFF6AEE00AAF0EE000AB0EE04
:100930004B0AFFF773FF2AEE00AAD4ED056A94ED87
:10094000017A7AEEE67A27EE277AD4ED097A27EE55
:10095000277A36EE877A84ED057AD4ED066A94ED2F
:10096000027A3AEE666A27EE067A27EE877A36EE44
:10097000877A84ED067AD4ED086AB7EE006A86EECF
:10098000267AD4ED070A29EEA00A38EE408A38EE1E
:100990006A8A27EE088A69EE200A78EEE08A78EE05
:1009A000CA8A67EE288A27EE888A39EE888A84ED1B
:1009B000038A67EEA87A79EE277AC4ED047AD4ED3B
:1009C0000B7A9FED380A67EE807A01A968469FEDA1
:1009D000360A87EE800A07F089FBD4ED057A9DED93
:1009E000017A67EEC77A94ED067ADDED006A27EEAC
:1009F000267A77EEC77A94ED107A37EE877A84ED0F
:100A0000107AD4ED0E6A66EEA76AD4ED097A94EDF9
:100A10000F6A27EE866A27EE067A36EE877AD4EDDD
:100A2000116AF4EEC76AF1EE10FA08D4D4ED126A36
:100A3000F4EEC76AF1EE10FA01DCF0EE476AC4ED9D
:100A40000C6A94ED0D6A94ED0A7A76EEC65A27EE9A
:100A5000257A27EE877A36EE077A84ED0D7A67EEEF
:100A6000A67A94ED0B7A77EE877AC4ED0B7A9FED38
:100A70000F7AF4EEC77AF1EE10FA07DD77EEC77A57
:100A8000C4ED0B7A02B0BDEC088B10BDF5EEC07A58
:100A9000F1EE10FAF6D59FED057A77EE877AC4ED80
:100AA0000B7AEFE700003443DB0F4940DB0FC9400E
:100AB000D0ED047AD0ED056A77EEE66A90ED067A1D
:100AC00036EE877A80ED067AD0ED007A67EEA67A68
:100AD000104BD3ED066A90ED016A66EE866A27EE4A
:100AE000267A77EE877AC0ED077A90ED027AF4EEF7
:100AF000C77AF1EE10FA02DD80ED077A704790EDCB
:100B0000037AF4EEC77AF1EE10FA01D580ED077A98
:100B1000704700BF100B002030B41D4D05601D4C08
:100B200044600023036143611B4AD2ED057A9FEDC7
:100B30001B7AC7EE876ADFED1A7A66EEA76AC0ED08
:100B4000026A92ED056AB1EE466AC6EE076A66EE83
:100B5000A76AC0ED036AC36183610D604C600B61DD
:100B60004B6192ED056AC6EE076A66EEA76AC1EDB3
:100B7000026A92ED056AB1EE466AC6EE076A66EE53
:100B8000A77AC1ED037ACB618B6130BC704700BF9F
:100B90004C37793F78EA0F44100B0020D7B3DD3F84
:100BA0006666663F80ED040A704780ED050A70476F
:100BB00080ED040A704780ED050A704738B5074D8F
:100BC0002846FFF775FF064C2046FFF771FFEA69DC
:100BD000044BDA60E2691A6138BD00BFC00A002028
:100BE000E00A0020500B0020B5EEC00AF1EE10FA2A
:100BF00000D97047B1EE400AFBE70000F8B5C74BDB
:100C00001B7F012B1AD053B9C54B1B783BB1002376
:100C1000C34A1370C34A126853639363D363C04BD0
:100C20001B78002B00F07981013B032B00F27581CA
:100C3000DFE813F00F003300A4001B01B84A12785C
:100C4000002AE0D1B64B01221A70B74B00221A607D
:100C5000E5E7B64B00229A63B549D9601A6100F006
:100C600061FA00F043FA00F0D5FAAF4BD3ED007A09
:100C7000B7EE007A77EE877AC3ED007A9FEDAD7A12
:100C8000F4EEC77AF1EE10FAC0F24781A44B0222CB
:100C90001A70A54B00221A603FE1A74BD3ED007AF2
:100CA0009FEDA67A77EE877AC3ED007A9FEDA47A5E
:100CB00067EE877A9D4B93ED0E7A77EE877AC3EDD8
:100CC0000E7A9FEDA07AF4EEC77AF1EE10FA48DDC5
:100CD00077EEC77AC3ED0E7A00F056FA00F068FAA4
:100CE000994E9FED9A0A3046FFF75CFF984DB1EEA2
:100CF000000A2846FFF75CFF8C4C94ED090A304649
:100D0000FFF753FF94ED0A0A2846FFF754FFFFF759
:100D100055FF00F007FA00F0E9F900F07BFA824D88
:100D2000D5ED007AB7EE007A77EE877AC5ED007AD6
:100D3000D4ED081A94ED071AD4ED060A94ED050ACD
:100D40008448FFF7D9FD95ED007ADFED7A7AB4EEAD
:100D5000E77AF1EE10FAC0F2E080714B03221A70CC
:100D6000DBE0F5EEC07AF1EE10FAB5D59FED757ABD
:100D700077EE877A6D4BC3ED0E7AADE76B4BD3ED13
:100D80000E7A9FED6E7A77EE877AC3ED0E7A9FED3D
:100D90006D7AF4EEC77AF1EE10FA59DD77EEC77A84
:100DA000C3ED0E7A00F0F0F900F002FA664F9FED05
:100DB000670A3846FFF7F6FE5B4DD5ED006A9FEDFA
:100DC0005D7AC6EE877A624EB1EE000A30EE670AAF
:100DD0003046FFF7EDFE554C94ED090A3846FFF713
:100DE000E4FE94ED0A0A3046FFF7E5FEFFF7E6FE63
:100DF00000F098F900F07AF900F00CFAD5ED007ADD
:100E0000B7EE007A77EE877AC5ED007A514DD4EDD2
:100E1000081A94ED071AD4ED060A94ED050A28463F
:100E2000FFF76AFD94ED0E0AD5ED0B7A30EE670AF6
:100E3000FFF7DAFEDFED487AB4EEE70AF1EE10FADA
:100E40006BD5374B04221A70374B00221A6064E0CE
:100E5000F5EEC07AF1EE10FAA4D59FED3A7A77EE6E
:100E6000877A324BC3ED0E7A9CE7002000F0C0F881
:100E70002E4C384ED4ED081A94ED071AD4ED060A1C
:100E800094ED050A3046FFF737FDF36AA36300F0DF
:100E90007BF900F08DF9314BD3ED007AF8EEE77A6B
:100EA0009FED2F0A67EE807A2E4D9FED2F0A37EEC9
:100EB000800A284600F0FAF8D6ED0D7AB5EE000A61
:100EC00067EE807AB3EE0E0A67EE807A9FED270A0E
:100ED00087EE800A284600F0F3F800F0F5F81A4F84
:100EE0009FED1A0A3846FFF75DFE194E95ED070A89
:100EF0003046FFF75DFE94ED090A3846FFF755FED0
:100F000094ED0A0A3046FFF756FEFFF757FE00F051
:100F100009F900F0EBF800F07DF9F8BD100B0020A6
:100F2000040B0020280E0020080B0020500B00208E
:100F3000000080BF00401C46000B0020A692AB3C86
:100F400017B7D138DB0FC940C00A002000000000ED
:100F5000E00A0020740A0020C3B8B23D0C0B002048
:100F60000000C842300B00200000FA43DB0F49406C
:100F7000B0F5806F06D0B0F5006F25D0B0F5005FFA
:100F80002AD0704710B5174B01221A77164C002152
:100F9000204605F04BF80421204605F047F80821CB
:100FA000204605F043F80C21204605F03FF80021CB
:100FB000204605F0F9F80421204605F0F5F808214F
:100FC000204605F0F1F810BD064B01221A77074ABA
:100FD0001368013313607047044A1368013B1360C0
:100FE000704700BF100B0020280E00200C0B0020C3
:100FF00008B5421E18BF01224021024803F07AFCC6
:1010000008BD00BF00080048074B4361074B036160
:10101000074B4360074B03604FF08143C360064BAF
:101020008360064B836170470000C0410000FA45B1
:101030000AD7633F7F87223A9A35C23B17B7D13828
:1010400090ED047AD0ED056A77EE666AD0ED067A07
:1010500076EEA77AC0ED067A90ED007A27EE267A32
:10106000064BD3ED066A90ED016A66EE866A67EE7E
:10107000A67A77EE277AC0ED077A7047100B00202A
:10108000064B0360064B436000238361054A826080
:10109000054AC26043610361C361704745D8703C33
:1010A0008FC2753E0000A0400000A0C0034A118816
:1010B000538843EA01430361704700BF4811002091
:1010C00080ED050A7047000008B50248FFF7B8FF39
:1010D00008BD00BF300B002008B550220021024897
:1010E00007F0E2F908BD00BF500B00200B4BD3ED19
:1010F000057AC3ED007ABEEE007A67EE877A93ED4B
:10110000067ADFED076A27EE267A77EE876AC3ED67
:10111000016A77EEC77AC3ED027A7047500B002060
:10112000D7B35D3F10B52DED028B164C94ED038ABD
:1011300094ED0E0A07F0B2F828EE008AD4ED048A86
:1011400094ED0E0A07F064F868EE808A38EE688A3B
:1011500084ED058A94ED038A94ED0E0A07F058F8A1
:1011600028EE008AD4ED048A94ED0E0A07F096F872
:1011700068EE808A38EE288A84ED068ABDEC028B00
:1011800010BD00BF500B0020074BDA6ADA61D3EDC7
:101190000C7A93ED0D7A77EEC77ADFED046A87EE6D
:1011A000A67A83ED087A7047500B0020D7B3DD3F55
:1011B00010B52DED028B164C94ED078A94ED0E0AB6
:1011C00007F06CF828EE008AD4ED088A94ED0E0A38
:1011D00007F01EF868EE808A38EE288A84ED098AC6
:1011E00094ED088A94ED0E0A07F058F828EE008A6C
:1011F000D4ED078A94ED0E0A07F00AF868EE808AAB
:1012000038EE688A84ED0A8ABDEC028B10BD00BFFF
:10121000500B002010B52DED048B2A4CD4ED009A14
:1012200094ED019AD4ED028AF0EE680AB0EE490A14
:1012300007F07EF8F0EE400AB0EE690A07F078F8A1
:10124000B0EE408AF0EE680AB0EE490A07F08EF878
:10125000F0EE400AB0EE690A07F088F878EE007AFE
:10126000BEEE000A67EE807A79EEA79A39EE279AE9
:1012700078EEA77AF1EE699A134BD3ED055AC9EED1
:10128000A56AB6EE006A76EE866A93ED047A66EE9B
:10129000876AC4ED0F6AB1EE499AC9EE256A76EE07
:1012A000866A67EE266AC4ED106AF1EE677AC7EEC9
:1012B000A56A76EE867A27EE277A84ED117ABDEC60
:1012C000048B10BD500B0020100B002010B59AB0FD
:1012D0000024179418941994202221460FA807F08F
:1012E000E3F83C222146684607F0DEF838484FF024
:1012F000A04303604FF4403343608460C4600461E2
:10130000012343610422826104774477036280F8F9
:101310002440C462046380F83840C46380F84040CD
:1013200001F098F9002843D10023179317A9284802
:1013300002F08AFB00283ED1264B0F930623109320
:10134000002311937F2212920422139214930FA967
:101350001F4801F0E7FB002830D11F4B0093092301
:101360000193012302937F23039304230493002317
:101370000593022208928DF824308DF825308DF8DF
:10138000263084220A9280220B928DF830306946F2
:101390000F4802F04BF8A0B9104B009340F20F1326
:1013A000019369460A4802F041F868B91AB010BDC5
:1013B00000F0F8FBB8E700F0F5FBBDE700F0F2FB4A
:1013C000CBE700F0EFFBE7E700F0ECFBEEE700BF58
:1013D000D00B00200008302E0800900C0010603266
:1013E00000B599B02022002110A807F05DF83C223A
:1013F000002101A807F058F82B482C4B03604FF44C
:101400004033436000238360C3600361436104226F
:101410008261037743770122026280F82430C3623D
:10142000036380F83830C36380F8403001F012F96C
:10143000002830D11E4B10930623119300231293E2
:101440007F22139204221492159310A9164801F0DA
:1014500069FB18BB164B01930923029301220392E7
:101460007F230493042305930023069309928DF8A8
:1014700028308DF829308DF82A3084220B92802272
:101480000C928DF8343001A9074801F0CFFF40B924
:1014900019B05DF804FB00F085FBCBE700F082FBA0
:1014A000D8E700F07FFBF3E73C0C00200001005080
:1014B0000800900C30B59DB004460021179118919A
:1014C00019911A911B91442206A806F0EDFF23689A
:1014D000B3F1A04F04D0484A934250D01DB030BD64
:1014E0004FF4004306934FF00053159306A803F002
:1014F0005BFF002835D1414A136801331360012B8B
:1015000032D03F4BDA6C42F00102DA64DA6C02F05E
:1015100001020292029ADA6C42F00202DA64DB6C97
:1015200003F002030393039B0423179303251895E9
:101530000024199417A94FF0904003F005F941F2E7
:10154000020317931895199417A92E4803F0FCF875
:1015500022462146122002F0EDFB122002F01EFC72
:10156000BCE700F01FFBC6E7254BDA6C42F40052E3
:10157000DA64DB6C03F400530193019BC1E74FF481
:10158000004306934FF00053159306A803F00CFF99
:1015900018BB1A4A136801331360012B20D0184B73
:1015A000DA6C42F00102DA64DB6C03F001030593AC
:1015B000059B41231793032318930024199417A91B
:1015C0004FF0904003F0C0F822462146122002F06E
:1015D000B1FB122002F0E2FB80E700F0E3FAD8E76B
:1015E000074BDA6C42F40052DA64DB6C03F400530C
:1015F0000493049BD3E700BF00010050A40B00201C
:10160000001002400004004838B5624B834200D00D
:1016100038BD614B1B7F012BFAD1604B1B78002B2F
:1016200036D15F4B18780130C0B21870594B1B6827
:10163000D3F880105B4A11605B4A1268D2F88020B0
:101640005A4C2260D3F88430594C2360594C256899
:1016500029442160584C25682A442260574C25684B
:101660002B4423606328D3D94C4801240470544888
:10167000A0FB014149094F4C2160A0FB0212520915
:101680004D490A60A0FB03235B094C4A1360BFE786
:10169000404B1A68D2ED207AF8EE677A454B93ED0D
:1016A000006AB8EE466A37EEC66ADFED465A26EEA5
:1016B000256A454B83ED006A92ED217AB8EE477AB0
:1016C0003E4AD2ED007AF8EE677A77EE677A67EEF7
:1016D000A57AC3ED027A344A1268D2ED206AF8EE98
:1016E000666A354A92ED007AB8EE477A36EEC77AE6
:1016F00027EE257A83ED017A344C84ED0B6A84ED74
:101700000C7AC4ED0D7AFFF779FA314A92ED0C7A32
:10171000F5EE005A27EE257AB3EE0E6A27EE067A2A
:10172000DFED2C6AC7EE267A2B4BC3ED007AD2EDA3
:101730000D7A67EEA57A67EE867A87EEA67A83ED54
:10174000017AD4ED0E7A254BC3ED007A92ED0B7A37
:1017500083ED017A77EEC77A9FED217A67EE877A7B
:1017600087EEA67A83ED027AD4ED0F7A1D4B1B68C3
:10177000FCEEE77AC3ED0D7AD4ED107AFCEEE77A51
:10178000C3ED0E7AD4ED117AFCEEE77AC3ED0F7A51
:101790003EE700BFD00B0020100B0020A00B002064
:1017A000C00B0020B40B00203C0C0020B80B002024
:1017B000BC0B0020A80B0020AC0B0020B00B0020BD
:1017C0001F85EB516EFAB33CC40B0020500B002078
:1017D000740A0020DB0F4940A80C0020B40C002044
:1017E00000003443280E002008B50A480A4B036065
:1017F0004FF4807343604023836000230361C36020
:1018000043611123836102F0A9F900B908BD00F01A
:10181000C9F9FBE7C00C00200002014010B586B0FA
:10182000002301930293039304930593026803F149
:10183000804303F581339A4201D006B010BD03F511
:101840008733DA6C42F00202DA64DB6C03F00203E5
:101850000093009B0223019303230293002403942B
:1018600001A9064802F070FF22462146402002F0FE
:1018700061FA402002F092FADFE700BF000400485E
:1018800000B58DB030220021684606F00DFE1148EB
:10189000114B036002F0A6FAA8B9022300930022BC
:1018A0008DF804208DF8052002920392049205928F
:1018B0000123069307926946064802F0A5FA28B963
:1018C0000DB05DF804FB00F06DF9E6E700F06AF991
:1018D000F6E700BFE40C00200008005000B58DB012
:1018E00030220021684606F0DFFD1048104B0360EF
:1018F00002F078FAA0B90223009300228DF80420A8
:101900008DF80520029203920492059306930792A4
:101910006946064802F078FA28B90DB05DF804FB74
:1019200000F040F9E7E700F03DF9F6E7F80C002099
:101930000010005000B589B0002303930493059371
:10194000069307930368194A934205D0184A9342B5
:1019500021D009B05DF804FB164BDA6C42F48032FA
:10196000DA64DA6C02F480320092009ADA6C42F0A7
:101970000102DA64DB6C03F001030193019B102385
:101980000393032304930023059303A94FF090408E
:1019900002F0DAFEDDE7074BDA6C42F48022DA640B
:1019A000DB6C03F480230293029BD2E70008005013
:1019B000001000500010024000B583B0124B9A6C2A
:1019C00042F004029A649A6C02F004020092009AB7
:1019D0009A6C42F001029A649B6C03F0010301933C
:1019E000019B002211460B2002F0A4F90B2002F00B
:1019F000D5F9002211460C2002F09CF90C2002F0CF
:101A0000CDF903B05DF804FB0010024038B5104872
:101A1000104B0360002343608360C360037443740E
:101A2000837414254561012484610A21C161052262
:101A3000026245628462C162026343638363C3637B
:101A400002F0C8FC00B938BD00F0ACF8FBE700BFFD
:101A50000C0D00200064004030B599B00446002110
:101A600013911491159116911791442202A806F032
:101A70001BFD22681E4B9A4201D019B030BD4FF4B5
:101A8000805302934FF000730E9302A803F08CFC76
:101A900050BB184B9A6D42F000729A659A6D02F035
:101AA00000720092009ADA6C42F00102DA64DB6C98
:101AB00003F001030193019B4FF4C05313930225DC
:101AC00014950024159416940923179313A94FF025
:101AD000904002F039FE22462946152002F02AF9EC
:101AE000152002F05BF9C8E700F05CF8D1E700BF11
:101AF000006400400010024030B58BB00024059413
:101B00000694079408940994244BDA6C42F004027A
:101B1000DA64DA6C02F004020192019ADA6C42F0A3
:101B20002002DA64DA6C02F020020292029ADA6C85
:101B300042F00102DA64DA6C02F001020392039AC5
:101B4000DA6C42F00202DA64DB6C03F00203049305
:101B5000049B134D22465021284602F0CBFE4FF441
:101B6000305305934FF488130693079405A928462C
:101B700002F0EAFD5023059301230693079408948D
:101B800005A9284602F0E0FD22460421282002F0A3
:101B9000D1F8282002F002F90BB030BD001002404D
:101BA0000008004872B6FEE700B595B03822002163
:101BB00006A806F079FC00200190029003900490A2
:101BC000059002F05BFF012306934FF480330793E7
:101BD00002230D9303220E920F922822109211934A
:101BE0001293139306A803F003F880B90F2301930F
:101BF00003230293002303930493059304210DEB25
:101C0000010003F0ABFA20B915B05DF804FBFFF753
:101C1000C9FFFFF7C7FF000000B583B000F0F8FC74
:101C2000FFF7C2FFFFF768FFFFF7C6FE00F0E4FB17
:101C3000FFF74CFBFFF7D4FB00F07AF800F090F8C8
:101C400000F0A6F8FFF7D0FDFFF748FE00F018FB04
:101C5000FFF716FEFFF7DAFE00F0FCF900F032FAAB
:101C6000002000904FF4E1330122114605F080FD81
:101C700005F004FE214C2046FFF7C6F9F2EE043AC7
:101C800094ED063AD4ED002A94ED012ADFED1C1AFA
:101C90009FED1C1ADFED1C0AB2EE000A1B48FEF78E
:101CA000EBFDFFF719FA1A491A48FEF735FF1A48F3
:101CB000FFF7E6F9194802F0C5FE194802F0C2FE26
:101CC000184802F0BFFE184C7F21204601F04AFA66
:101CD000164D7F21284601F045FA22682023136023
:101CE0002268042111602A681360204601F000FB7D
:101CF000284601F085FA05F0D3FDFCE7100B002023
:101D000000401C450000484300001643740A0020B0
:101D1000E00A0020C00A0020300B0020700D0020D7
:101D2000AC0D0020E80D0020D00B00203C0C002062
:101D300008B50948094B0360002343608360C36012
:101D4000036103758361C36202F0E8FD00B908BD59
:101D5000FFF728FFFBE700BF700D002000030140E4
:101D600008B50948094B0360002343608360C360E2
:101D7000036103758361C36202F0D0FD00B908BD41
:101D8000FFF710FFFBE700BFAC0D0020040301408C
:101D900008B50948094B0360002343608360C360B2
:101DA000036103758361C36202F0B8FD00B908BD29
:101DB000FFF7F8FEFBE700BFE80D00200803014035
:101DC00000B589B00023039304930593069307930A
:101DD0000368264A934208D0254A93421BD0254ADD
:101DE00093422ED009B05DF804FB234BDA6C42F02D
:101DF0000102DA64DB6C03F001030093009B0E2305
:101E00000393032304930023059303A94FF0904009
:101E100002F09AFCE6E7184BDA6C42F00102DA6451
:101E2000DB6C03F001030193019BE0230393032385
:101E300004930023059303A94FF0904002F084FC23
:101E4000D0E70D4BDA6C42F00202DA64DB6C03F08F
:101E500002030293029B07230393032304930023AB
:101E6000059303A9054802F06FFCBBE7000301409E
:101E70000403014008030140001002400004004830
:101E800000B583B00B4B1A6E42F001021A661A6E4F
:101E900002F001020092009A9A6D42F080529A6517
:101EA0009B6D03F080530193019B02F06DFE03B024
:101EB0005DF804FB00100240FEE7FEE7FEE7FEE7E8
:101EC000FEE770477047704708B500F0B1FB08BDEA
:101ED00008B5024802F0E6F908BD00BF6C0F00200B
:101EE00008B5024802F0DEF908BD00BF0C0F002063
:101EF00008B5034800F0CCFC024800F0C9FC08BD5E
:101F0000D00B00203C0C002008B5024802F057FB23
:101F100008BD00BF0C0D002008B5024803F02EFDDF
:101F200008BD00BF280E002008B5024803F026FDBA
:101F300008BD00BF280E002008B5024803F01EFDB2
:101F400008BD00BF280E002008B5024803F016FDAA
:101F500008BD00BF740E002008B54FF4806002F089
:101F6000CFFC4FF4006002F0CBFC4FF4005002F0C5
:101F7000C7FC08BD08B5024801F0A4FE08BD00BFBB
:101F8000C00C00200120704708B506F04FFA162358
:101F900003604FF0FF3008BD08B54FF0FF31FFF789
:101FA000F3FFFEE770B50C4616460025B54207DA8A
:101FB000AFF30080214601F8010B01350C46F5E72F
:101FC000304670BD70B50C4616460025B54205DAA0
:101FD00014F8010BAFF300800135F7E7304670BD10
:101FE0004FF0FF3070474FF400534B6000207047B4
:101FF000012070470020704710B503460C4A0D4978
:102000000D48006840B10C4800680344521A9342DE
:1020100006D8094A136010BD0748084C0460F2E76F
:1020200006F004FA0C2303604FF0FF30F3E700BF23
:102030000080002000040000240E0020C8120020B0
:10204000034AD2F8883043F47003C2F888307047EE
:1020500000ED00E000B589B00023049305930693DA
:1020600007930193029303931448154A0260436057
:1020700083604FF6FF72C2600361836103F0D8FD95
:1020800090B94FF48053049304A90C4803F020FF47
:1020900068B900230193039301A9084804F0FEF8EE
:1020A00040B909B05DF804FBFFF77CFDE9E7FFF7F5
:1020B00079FDEEE7FFF776FDF3E700BF740E002031
:1020C0000004004000B589B00023049305930693F3
:1020D00007930193029303931448154A02604360E7
:1020E00083604FF6FF72C2600361836103F0A0FD5D
:1020F00090B94FF48053049304A90C4803F0E8FE10
:1021000068B900230193039301A9084804F0C6F8B5
:1021100040B909B05DF804FBFFF744FDE9E7FFF7BC
:1021200041FDEEE7FFF73EFDF3E700BFC00E0020E4
:102130000008004000B585B00368264A934208D0E5
:10214000254A934228D0254A934238D005B05DF8FD
:1021500004FB234B1A6E42F400621A661B6E03F4F2
:1021600000630193019B00220121182001F0E2FD90
:10217000182001F013FE00220121192001F0DAFDE0
:10218000192001F00BFE002201211B2001F0D2FDDD
:102190001B2001F003FED9E7114B9A6D42F00202B9
:1021A0009A659B6D03F002030293029B00220121BA
:1021B0001D2001F0BFFD1D2001F0F0FDC6E7084B1A
:1021C0009A6D42F004029A659B6D03F00403039339
:1021D000039BBBE7002C01400004004000080040C6
:1021E00000100240F0B589B00023039304930593D7
:1021F000069307930268204B9A4201D009B0F0BDC4
:1022000003F56443DA6C42F00202DA64DA6C02F03D
:1022100002020192019ADA6C42F00102DA64DB6C8C
:1022200003F001030293029B4FF4C0430393022582
:102230000495002405940694062607960F4F03A9DB
:10224000384602F081FA4FF4004303930495059455
:1022500006940423079303A9384602F075FA4FF455
:10226000E0630393049505940694079603A94FF041
:10227000904002F069FAC1E7002C014000040048D8
:1022800010B59EB000241A941B941C941D941794AE
:10229000189419941494159416940D940E940F9404
:1022A000109411941294139434222146684606F037
:1022B000FBF84F484F4B036044602023836041F696
:1022C0003F73C3604FF4807303614461846103F022
:1022D000AFFC00286DD14FF480531A931AA94448DB
:1022E00003F0F6FD002867D1414803F0D1FC002837
:1022F00065D17023179300231893199317A93C48AD
:1023000003F0CCFF00285DD1022314930121159125
:102310000023169314AA364804F05AF8002854D122
:1023200060230D9300220E920F921092119212923E
:1023300013920DA92E4803F021FD002848D1042254
:102340000DA92B4803F01AFD002844D108220DA93D
:10235000274803F013FD002840D170230D9341F668
:102360003E730E930C220DA9214803F007FD0028AF
:1023700037D10023009301930293782203924FF404
:10238000805204924FF40052059202220692079363
:1023900008934FF0007209920A930B930C936946CD
:1023A000134803F0C5FFF8B91148FFF71BFF1EB033
:1023B00010BDFFF7F7FB8EE7FFF7F4FB94E7FFF79D
:1023C000F1FB96E7FFF7EEFB9EE7FFF7EBFBA7E7D6
:1023D000FFF7E8FBB3E7FFF7E5FBB7E7FFF7E2FB43
:1023E000BBE7FFF7DFFBC4E7FFF7DCFBDCE700BF81
:1023F000280E0020002C014008B51748174B036039
:102400004FF4E133436000238360C36003610C2217
:1024100042618361C36103624362836204F02FFC03
:1024200070B900210C4804F020FD60B900210A4871
:1024300004F040FD50B9084804F0F8FC48B908BD64
:10244000FFF7B0FBEDE7FFF7ADFBEFE7FFF7AAFB08
:10245000F1E7FFF7A7FBF2E7CC0F002000480040B0
:1024600030B599B00446002113911491159116913D
:102470001791442202A806F017F82268344B9A42BA
:1024800001D019B030BD042302930023059302A8A4
:1024900002F08AFF002852D12E4B9A6D42F480221E
:1024A0009A659A6D02F480220092009ADA6C42F0EA
:1024B0000202DA64DB6C03F002030193019B4FF428
:1024C0004063139302231493002515951695072353
:1024D000179313A9204802F037F92048204B0360D6
:1024E0001D23436010238360C56080230361456121
:1024F0008561C561056201F0E9FD18BB174BE36713
:102500009C621848184B03601C23436000238360BF
:10251000C3608022026143618361C361036201F091
:10252000D5FD90B90F4BC4F880309C620022022187
:10253000272001F0FFFB272001F030FCA1E7FFF787
:1025400031FBA9E7FFF72EFBD8E7FFF72BFBE9E705
:102550000048004000100240000400486C0F0020BA
:10256000080002400C0F00201C0002400D48854668
:10257000FFF766FD0C480D490D4A002302E0D458D0
:10258000C4500433C4188C42F9D30A4A0A4C0023BD
:1025900001E013600432A242FBD305F061FFFFF7B4
:1025A0003BFBFEE70080002000000020580A0020CE
:1025B000D0BC0008580A0020C4120020FEE700002A
:1025C000104B1B680BB90120704710B504464FF43F
:1025D0007A70B0FBF3F30C4A1068B0FBF3F001F033
:1025E000EBFB68B90F2C01D901200AE0002221463B
:1025F0004FF0FF3001F09EFB044B1C60002000E018
:10260000012010BD04000020000000200800002070
:1026100010B5032001F07CFB0F20FFF7D1FF10B1B4
:102620000124204610BD0446FFF72AFCF9E700000C
:10263000034A1368034909680B441360704700BFDD
:102640006010002004000020014B1868704700BF94
:102650006010002030B583B000230193002800F003
:1026600006810446C36D13B323689A6812F0005FB5
:1026700005D09A6822F0204222F03F029A60226838
:10268000936813F0805F1FD1936823F0104323F009
:102690003F0343F080539360764B1B689B09764A57
:1026A000A2FB03239B0901335B00019309E0FEF7C2
:1026B00001FF0023236684F85830D5E7019B013BD6
:1026C0000193019B002BF9D12268936813F0805F7E
:1026D00009D1E36D43F01003E365236E43F001037A
:1026E0002366012000E00020936813F0040300D06B
:1026F0000123E16D11F0100F40F0B280002B40F08B
:10270000AF80E36D23F4817343F00203E3659368C4
:1027100013F0010F15D14FF0A0439B6813F0010394
:1027200000D00123554A926812F0010200D0012224
:10273000134306D1636852498A6822F47C1213431A
:102740008B60627FE36B43EA4233E2681343A26823
:10275000134394F8242043EA0243012A51D0E26A49
:1027600022B102F47872216B0A4313432168CD68C9
:10277000444A2A401343CB602268136923F0406324
:10278000616B0B4313612268936813F0080300D058
:1027900001233BBB217F94F838305B0043EA813151
:1027A000D36823F4804323F002030B43D3602369EF
:1027B00063B32268136943F4803313612268D2F84B
:1027C000C03023F47F5323F03F0321690B43C2F849
:1027D000C03094F84030012B27D02268136923F0D1
:1027E000010313616369012B31D02268136B23F05D
:1027F0000F031363E36D23F0030343F00103E36569
:1028000033E0A26A013A43EA4243A8E72268136927
:1028100023F4803313612268D2F8C03023F47F534D
:1028200023F03F03C2F8C030D3E721680B6923F4DB
:10283000FF6323F00403626CA56C2A43E56C2A4312
:10284000256D2A43134343F001030B61CAE7216856
:102850000B6B23F00F03226A013A13430B63C9E7A2
:10286000E36D43F01003E365012003B030BD0120A8
:10287000FBE700BF00000020632D3E050001005073
:10288000000300500740F0FF70477047704700009A
:10289000F8B5044603681F685D68A04B9E6806F0A3
:1028A0001F0617F0020F10D015F0020F0DD0C36DE8
:1028B00013F0100F03D1C36D43F40063C3652046CA
:1028C00000F0B3FD236802221A6017F0040F02D053
:1028D00015F0040F05D117F0080F4AD015F0080FB6
:1028E00047D0E36D13F0100F03D1E36D43F4007391
:1028F000E3652368DA6812F4406F34D1884A934262
:1029000009D01A46934209D046B1052E06D0092EA9
:1029100004D0D26803E04FF0A042F3E7DA6812F483
:10292000005F20D11A6812F0080F1CD09A6812F0CC
:10293000040F10D15A6822F00C025A60E36D23F4A0
:102940008073E365E36D13F4805F0CD1E36D43F0B6
:102950000103E36507E0E36D43F01003E365236ED5
:1029600043F0010323662046FFF78EFF23680C2205
:102970001A6017F0200F02D015F0200F05D117F0C4
:10298000400F5CD015F0400F59D0E36D13F0100FDD
:1029900003D1E36D43F40053E3652368DA6C12F46A
:1029A000C07F12D10121DA6812F4406F0FD10120EB
:1029B0005B4A93420DD01A4693420DD066B1062E63
:1029C0000AD0072E08D0D26807E00021EBE70020EC
:1029D000EEE74FF0A042EFE7DA6851B312F0007F64
:1029E00003D030B312F4005F23D1196811F0400F07
:1029F0001FD012F4001F1CD19A6812F0080F10D1DA
:102A00005A6822F060025A60E36D23F48053E36554
:102A1000E36D13F4807F0CD1E36D43F00103E365B4
:102A200007E0E36D43F01003E365236E43F0010319
:102A300023662046FEF7E8FD236860221A6017F03F
:102A4000800F02D015F0800F2FD117F4807F02D0B5
:102A500015F4807F34D117F4007F02D015F4007F85
:102A60003AD117F0100F19D015F0100F16D0E36BF4
:102A700033B1002E3CD0294B9B6813F4604F0AD031
:102A8000E36D43F48063E365236E43F00203236642
:102A90002046FFF7FBFE236810221A6017F4806FB0
:102AA00002D015F4806F29D1F8BDE36D43F4803373
:102AB000E3652046FFF7E9FE236880221A60C4E739
:102AC000E36D43F40033E365204600F0ACFC23687B
:102AD0004FF480721A60BEE7E36D43F48023E36530
:102AE000204600F0A1FC23684FF400721A60B8E79A
:102AF0002368DB6813F0010FCDD0C1E7E36D43F429
:102B00008043E365236E43F00803236623684FF494
:102B100080621A60204600F085FCC5E70003005083
:102B200000010050F0B482B00022019290F85820C9
:102B3000012A00F056820346012280F858200668D8
:102B4000B06810F0040F0AD0DA6D42F02002DA65A6
:102B50000120002283F8582002B0F0BC70474D6875
:102B60000C6830362A0A920002F00C02B05805F0C8
:102B70001F051F27AF4020EA0700C4F38464AC4060
:102B80002043B0501868826812F0040200D001227D
:102B9000846814F0080400D00124002A4DD1002CD0
:102BA0004BD18D68B5F1004F7ED00F6814307A0E8E
:102BB000920002F004028658C7F304574FF0070C46
:102BC0000CFA07FC26EA0C06BD4035438550186810
:102BD000426922F0004242614D691868C268C2F33E
:102BE000C102520005FA02F20E69042E74D0603060
:102BF00050F82670A64D3D400F6807F0F8473A435D
:102C0000154345F0004540F826501A680E6988695A
:102C1000603252F8265025F08075284342F826008D
:102C20001A680D69087F012853D0603252F82500D8
:102C300020F00070044342F825401868826812F0C2
:102C4000010F16D10A68CD68D0F8B040C2F3120661
:102C500024EA060405F018068E4DF5402A40C2F31A
:102C600012022243C0F8B020C8688B4A904200F09C
:102C70009B800A6889490A4200F0AB8188498968CB
:102C800001F0E070874CA24200F05A81864CA242CB
:102C900000F05681854CA24200F07881844CA2421B
:102CA00000F08681002054E70D6814306A0E92000F
:102CB00002F004028658C5F30455072707FA05F504
:102CC00026EA050585501868426942F000424261D3
:102CD00082E74FF00074A8E7026E046EC4F38464C8
:102CE0000A68C2F3120585BBC2F38462944234D0F1
:102CF0001C68626E606EC0F384600A68C2F31205DD
:102D000085BBC2F38462904234D01C68A26EA06E70
:102D1000C0F384600A68C2F3120585BBC2F3846203
:102D2000904234D01C68E26EE06EC0F384600A68A2
:102D3000C2F3120585BBC2F3846290427FF47DAF7B
:102D4000E26E22F00042E26677E792FAA2F212B156
:102D5000B2FA82F2CAE72022C8E7026E22F00042ED
:102D60000266C5E792FAA2F212B1B2FA82F2CAE79B
:102D70002022C8E7626E22F000426266C5E792FA3E
:102D8000A2F212B1B2FA82F2CAE72022C8E7A26E1A
:102D900022F00042A266C5E792FAA2F212B1B2FA9C
:102DA00082F2CAE72022C8E71D680A68C2F3120649
:102DB000002E35D1900E013000F01F0009288CBF85
:102DC00000200120002875D0002E38D1940E013447
:102DD000A40604F0F844002E3DD1900E013000F01E
:102DE0001F070120B8400443002E42D1920E013249
:102DF00002F01F0202EB4202120522438C681435D6
:102E0000500E800000F004002E58C2F30452072731
:102E1000974026EA070604FA02F232432A5028E7CE
:102E200092FAA2F048B1B0FA80F0013000F01F0031
:102E300009288CBF00200120C4E72020F5E792FA82
:102E4000A2F434B1B4FA84F40134A40604F0F844D2
:102E5000C1E72024F8E792FAA2F040B1B0FA80F07E
:102E6000013000F01F00012707FA00F0BBE7202027
:102E7000F6E792FAA2F242B1B2FA82F2013202F01D
:102E80001F0202EB42021205B7E72022F6E700BF5D
:102E900000F0FF03FFFF070000007F4000000880F4
:102EA00000030050000021C31000C090000052C772
:102EB000000084CBCEB9940E0134A40604F0F8448B
:102EC000FEB9900E013000F01F070120B840044306
:102ED0002EBB900E013000F01F0000EB40021E3AA6
:102EE000120542F00072224388E792FAA2F434B14C
:102EF000B4FA84F40134A40604F0F844E0E7202492
:102F0000F8E792FAA2F040B1B0FA80F0013000F098
:102F10001F00012707FA00F0D9E72020F6E792FA10
:102F2000A2F25AB1B2FA82F0013000F01F0000EBB9
:102F300040021E3A120542F00072D4E72020F3E767
:102F400011F4000F7FF4A6AE1A68B2F1A04F01D0C1
:102F50000020FEE540F4000023498A6822F0E07278
:102F600010438860214A126892092149A1FB02128C
:102F70009209013202EB420292000192019A1AB1C7
:102F8000019A013A0192F9E70020E2E511F0807F11
:102F90007FF484AE1968174A91421CD040F08070CB
:102FA00011498A6822F0E072104388600020D0E561
:102FB00011F4800F11D119680E4A91420FD040F4DC
:102FC00080020948816821F0E0710A438260002094
:102FD000BFE50020BDE50020BBE50020B9E50020ED
:102FE000B7E50220B8E500BF000300500000002054
:102FF000632D3E050001005030B583B000230193DE
:1030000003689A6812F0010F57D1044699682C4A58
:1030100011421ED19A6822F0004222F03F0242F093
:1030200001029A60274B9B6813F4000F1BD0264BBC
:103030001B689B09254AA2FB03239B09013303EB71
:1030400043039B000193019B6BB1019B013B0193E7
:10305000F9E7C36D43F01003C365036E43F001034A
:10306000036601202AE0FFF7EFFA054623681A6895
:1030700012F0010F1FD19A6812F0010F07D19A6860
:1030800022F0004222F03F0242F001029A60FFF774
:10309000DBFA431B022BE9D923681B6813F0010FED
:1030A000E4D1E36D43F01003E365236E43F00103C5
:1030B0002366012002E0002000E0002003B030BDC4
:1030C0003F0000800003005000000020632D3E05FB
:1030D00038B504460268936813F0020300D0012358
:1030E000916811F0010F39D0002B39D1936803F0AA
:1030F0000D03012B09D0E36D43F01003E365236E4C
:1031000043F001032366012029E0936823F0004384
:1031100023F03F0343F002039360236803221A6005
:10312000FFF792FA054623689B6813F0010F13D04E
:10313000FFF78AFA401B0228F5D923689B6813F031
:10314000010FF0D0E36D43F01003E365236E43F00D
:1031500001032366012002E0002000E0002038BDCA
:103160000020FCE730B583B00023019390F858307D
:10317000012B41D004460D46012380F85830FFF75B
:10318000A7FF80BBE36D23F4885323F0020343F0D1
:103190000203E3652268936823F0404323F03F0372
:1031A00005F080452B4343F00043936023689B6800
:1031B000002B06DBE36D23F0030343F00103E3651B
:1031C00015E0019B01330193019A0C4B9A42EDD912
:1031D000E36D23F0120343F01003E365002384F84A
:1031E0005830012006E0E36D43F01003E36500234F
:1031F00084F8583003B030BD0220FBE701DE040044
:1032000038B5394B9D6803689A6812F0080F67D18A
:10321000044605F01F05DA68DB6C13F4C07F01D1AA
:10322000002A3DDA94F85830012B5BD0012384F852
:1032300058302046FFF7E0FE00284DD1E36D13F42F
:10324000807F33D0236E23F008032366E36D23F4DD
:10325000405323F0010343F48053E3652368234A7A
:10326000934226D01A46934200D01DB9E26D22F453
:103270008012E26560221A60002384F858302368C7
:103280001A4A934218D01A46934218D0BDB1062D5F
:1032900015D0072D13D0E36D43F48013E36520E0D0
:1032A000C36D43F02003C36501201AE000232366A9
:1032B000CCE74FF0A042D6E74FF0A042E4E7DA684F
:1032C00012F0007F0DD19A6822F0004222F03F02F6
:1032D00042F008029A6004E0002384F8583000E0CD
:1032E000022038BD0220FCE700030050000100501E
:1032F00038B54A4B9D6803689A6812F0080F40F091
:103300008980044605F01F05DA68DB6C13F4C07F82
:1033100001D1002A53DA94F85830012B7CD00123D4
:1033200084F858302046FFF767FE00286ED1E36D21
:1033300013F4807F49D0236E23F008032366E36DE6
:1033400023F4405323F0010343F48053E3652368DF
:10335000334A93423CD01A46934200D01DB9E26DE5
:1033600022F48012E26560221A60002384F858304B
:103370002368DA6812F4001F03D05A6842F48062AE
:103380005A60A369082B26D02268536823F04003B3
:1033900053602268536843F0200353602368204A37
:1033A000934223D01A46934223D015B3062D20D042
:1033B000072D1ED0E36D43F48013E3652BE0C36D4E
:1033C00043F02003C365012025E000232366B6E710
:1033D0004FF0A042C0E72268536823F020035360F7
:1033E0002268536843F040035360D7E74FF0A04290
:1033F000D9E7DA6812F0007F0DD19A6822F0004216
:1034000022F03F0242F008029A6004E0002384F8B0
:10341000583000E0022038BD0220FCE700030050D5
:10342000000100507047704770477047F0B583B097
:10343000034600220192406993F85820012A00F0C7
:10344000F982012283F85820A8B10A6A012A12D011
:10345000986E002840F0CD809A6600225A668C6AE9
:10346000002C00F0C3800A6A013A04F07C04224375
:10347000CC6A1443BEE04A68092A00F097801A68B3
:10348000906810F0080F10D191F82500002840F046
:10349000D080D06820F4401091F8265091F8244054
:1034A000240544EA45542043D0601C68A26812F009
:1034B000040200D00122A56815F0080500D00125FE
:1034C000002A40F06181002D40F097818A6A1AB18C
:1034D000CA6A002A40F0BC8091F82520012A00F039
:1034E000B180E26822F00072E260002091F83020A2
:1034F000012A00F0BC801C68226922F002022261CD
:103500008C68B4F1004F00F0BE801A680F6802F1B9
:10351000140C7A0E920002F004025CF80260C7F309
:1035200004574FF0070E0EFA07FE26EA0E06BC40BF
:1035300034434CF802401C68626922F00042626128
:103540004C691E68F268C2F3C102520004FA02F22A
:10355000D1F810C0BCF1040F00F0AF80603656F80F
:103560002C40A74F27400C6804F0F844224317432F
:1035700047F0004746F82C701A680F698C69603272
:1035800052F8276026F08076344342F827401A68C4
:103590000E690C7F012C00F08D80603252F82640BD
:1035A00024F00074254342F82650EEE08C6ABCB14A
:1035B0000868820E520202F4785204F07C0422431E
:1035C000C86A02431C68E06C20F07B4020F46F0066
:1035D00020F43F4020F0FF001043E0645A664EE7BD
:1035E0000A68920E520202F47852EBE70A6A541EFD
:1035F00000E000240868C0F384604A6802F01F02FB
:1036000000FA02F22243986E013898665C6E2243FB
:103610005A6600287FF433AF1C68E06C20F07B40D2
:1036200020F46F0020F43F4020F0FF000243E264EA
:1036300025E7D06820F4401091F8264040EA445035
:10364000D06032E7E26842F00072E26000204DE7AD
:1036500091F82500012805D0E26822F00072E260AE
:10366000002043E7DA6D42F02002DA653EE71E688B
:10367000326922F4FF724C6B8F6B3C43224342F061
:10368000020232613CE71C680E681434720E92002C
:1036900002F00402A758C6F304564FF0070C0CFAC8
:1036A00006F627EA0606A6501C68626942F0004248
:1036B000626145E74FF000756FE7326E346EC4F318
:1036C00084640A68C2F312057DBBC2F3846294422B
:1036D00033D01D686A6E6C6EC4F384640A68C2F3EA
:1036E00012067EBBC2F38462944233D01D68AA6E78
:1036F000AC6EC4F384640A68C2F312067EBBC2F3E4
:103700008462944233D01D68EA6EEC6EC4F3846424
:103710000A68C2F312067EBBC2F38462944234D1BB
:10372000EA6E22F00042EA662FE092FAA2F212B1AB
:10373000B2FA82F2CBE72022C9E7326E22F00042D1
:103740003266C6E792FAA2F212B1B2FA82F2CBE77F
:103750002022C9E76A6E22F000426A66C6E792FA42
:10376000A2F212B1B2FA82F2CBE72022C9E7AA6E26
:1037700022F00042AA66C6E792FAA2F212B1B2FAA9
:1037800082F2CBE72022C9E700201D68AA6812F068
:10379000010F15D10A68CE68D5F8B040C2F3120700
:1037A00024EA070406F01807164EFE403240C2F322
:1037B00012022243C5F8B020CC68134A944231D09B
:1037C0000A6812490A4213D01149896801F0E0746D
:1037D000104DAA4200F0E5800F4DAA4200F0E180B2
:1037E0000E4DAA4200F002810D4DAA4200F0108158
:1037F000002283F8582003B0F0BD0020C5E700BFC9
:1038000000F0FF03FFFF070000007F40000008807A
:1038100000030050000021C31000C090000052C7F8
:10382000000084CB1E680A68C2F31207002F38D14B
:10383000940E013404F01F04092C8CBF00240124D1
:10384000002C66D0002F3BD1950E0135AD0605F05A
:10385000F845002F40D1940E013404F01F0C0124D0
:1038600004FA0CF42543002F45D1920E013202F0E8
:103870001F0202EB420212052A438D681436540ED1
:10388000A40004F004043759C2F304524FF0070CAB
:103890000CFA02FC27EA0C0705FA02F23A4332510D
:1038A0008EE792FAA2F44CB1B4FA84F4013404F035
:1038B0001F04092C8CBF00240124C1E72024F5E754
:1038C00092FAA2F535B1B5FA85F50135AD0605F0E8
:1038D000F845BEE72025F8E792FAA2F44CB1B4FA15
:1038E00084F4013404F01F044FF0010C0CFA04F4CA
:1038F000B8E72024F5E792FAA2F242B1B2FA82F2D6
:10390000013202F01F0202EB42021205B4E720224C
:10391000F6E7D7B9950E0135AD0605F0F84507BBBA
:10392000940E013404F01F0C012404FA0CF4254316
:1039300037BB940E013404F01F0404EB44021E3A1A
:10394000120542F000722A4397E792FAA2F535B1C8
:10395000B5FA85F50135AD0605F0F845DFE7202518
:10396000F8E792FAA2F44CB1B4FA84F4013404F00A
:103970001F044FF0010C0CFA04F4D8E72024F5E7FB
:1039800092FAA2F25AB1B2FA82F4013404F01F049E
:1039900004EB44021E3A120542F00072D3E72024E1
:1039A000F3E711F4000F7FF41BAF1A68B2F1A04FD8
:1039B0007FF41EAF44F400041F498A6822F0E072CD
:1039C00014438C601D4A126892091D49A1FB021222
:1039D000920902EB420292001832019202E0019A2F
:1039E000013A0192019A002AF9D101E711F0807F92
:1039F0007FF4FAAE1968134A91423FF4F9AE44F0ED
:103A000080740D498A6822F0E07214438C60EFE6FE
:103A100011F4800F7FF4ECAE19680A4A91423FF42A
:103A2000E7AE44F4800404498A6822F0E07214434B
:103A30008C60DDE60220DEE600030050000000207E
:103A4000632D3E050001005090F85820012A7ED0D9
:103A500030B49CB00346012280F85820002218920E
:103A600019920068B0F1A04F39D000220192019A5A
:103A7000002A37D0926812F0040200D00122806838
:103A800010F0040F54D1002A52D10A68002A32D013
:103A9000304CA26822F46042486893F8385040EAFB
:103AA00045300243A2604FF0A042926812F001023A
:103AB00000D001222848806810F0010000D00120C9
:103AC000024340D1234CA26822F4716222F00F021B
:103AD0000868896801430A43A26000202DE01E4A5D
:103AE0000192C4E7DA6D42F02002DA65002283F821
:103AF0005820012024E017498A6822F460428A6035
:103B00004FF0A042926812F0010200D00122124947
:103B1000896811F0010100D001210A4315D10D4936
:103B20008A6822F4716222F00F028A60002004E0A9
:103B3000DA6D42F02002DA650120002283F8582075
:103B40001CB030BC70470020F7E70020F5E70220EA
:103B5000704700BF000300500001005030B583B033
:103B600000230193002800F09980044603681B6835
:103B7000002BC0F29680437F4BB32168086800F4A5
:103B80000000A3686268134362691343E268134349
:103B9000226913430D68454A2A4013430B6022688B
:103BA000136813F4000F17D0B0B9414B1B689B0981
:103BB0004049A1FB03139B09013303EB83039B00E3
:103BC0000193019B43B1019B013B0193F9E703770B
:103BD0000362FDF723FED0E7374B9A4230D004331F
:103BE0009A4230D004339A4227D04FF08043A269E2
:103BF00012F0030F42D012F0100F27D02F498A681D
:103C00001A438A60A26912F0200F25D02B49CA6896
:103C10001A43CA60294A5361A26912F0020F21D0E7
:103C200026494A681A434A60A26912F0010F1FD060
:103C300022490A6813430B6029E04FF00053D6E78E
:103C40004FF40013D3E74FF48003D0E71B498A6891
:103C500022EA03028A60D5E71849CA6822EA030209
:103C6000CA60D7E715494A6822EA03024A60DBE7DF
:103C700012490A6822EA03030B6008E00F4A516800
:103C800021EA03015160116821EA03031360637F95
:103C900003F0FF003BB90123637700E0012003B08C
:103CA00030BD0120FBE70020F9E700BF0F7E00FFD9
:103CB00000000020632D3E05000201400004014089
:103CC0007047000008B503680F4A934210D00432D1
:103CD000934210D00432934207D04FF080430B4AF6
:103CE000526933EA020209D008BD4FF00053F6E7EB
:103CF0004FF40013F3E74FF48003F0E7034A5361F6
:103D0000FFF7DEFFF0E700BF0002014000040140C2
:103D1000074AD36823F4E0631B041B0C000200F481
:103D2000E060034343F0BF6343F40033D360704764
:103D300000ED00E030B4174BDB68C3F30223C3F19E
:103D40000704042C28BF04241D1D062D18D9033B8D
:103D50004FF0FF3505FA04F421EA0401994005FA11
:103D600003F322EA0303194300280BDB0901C9B25C
:103D700000F1604000F5614080F8001330BC7047EE
:103D80000023E5E700F00F000901C9B2024B195406
:103D9000F4E700BF00ED00E014ED00E0002807DBD1
:103DA00000F01F02400901239340024A42F82030EC
:103DB000704700BF00E100E00138B0F1807F0AD217
:103DC000064B5860064AF02182F8231000209860C4
:103DD00007221A6070470120704700BF10E000E022
:103DE00000ED00E070B110B50446037933B1022351
:103DF0002371002020610123237110BD4371FDF761
:103E000099FDF4E701207047002800F0FD802DE9BE
:103E1000F0410C4615460646002900F0F78043792C
:103E2000012B00F0F58001234371022303718B689D
:103E3000042B17D0E369012B60D03368DF6B05F0EA
:103E400010050723AB4027EA0307A369012B62D0C3
:103E5000022B00F0BF806369002B40F0BE804FF062
:103E600001085AE0FEF7F0FB07469DB133685A6B34
:103E7000002A40DAFEF7E8FBC01B0128F6D93368B8
:103E80005B6B002BF2DA336943F0080333610320E4
:103E900030719DE033685A6B12F4004F10D0FEF77A
:103EA000D3FBC01B0128F5D933685B6B13F4004FBB
:103EB000F0D0336943F0080333610320307187E0A9
:103EC000626A1A643068826C05F0100140F2FF33B8
:103ED0008B4022EA0302A36A8B401A438264306853
:103EE000C36CFF228A4023EA0203E26A02FA01F16C
:103EF0000B43C3649EE7626A5A64E3E731688A6BE6
:103F000005F010001F23834022EA0302236A834046
:103F100013438B6391E74FF00008A3686269134372
:103F200043EA08034FF48072AA4027EA0207227985
:103F3000012A55D04FF0000848EA03034FF40072FD
:103F4000AA4027EA02076279012A4CD04FF0000804
:103F500048EA030827F440472368022B46D01F4352
:103F600008FA05F848EA07073368DF6331680B6829
:103F70004FF48042AA4023EA02030B6031680B68C9
:103F800040F6FE72AA4023EA0202E368AB40134304
:103F90000B6031680B68C022AA4023EA02030B6061
:103FA000E268C2F3830322699208120202F470628B
:103FB0001A433068036E40F60F71A94023EA0103EB
:103FC00002FA05F51D430566012333710020707167
:103FD000BDE8F0814FF001089FE74FF000089CE733
:103FE0004FF48078A8E74FF40078B1E701F0B2F918
:103FF000084B984202D947F40047B1E7064B984274
:10400000AED947F48047ABE7012070470120DFE7D6
:104010000220DDE70068890900B4C40470B4C46CF0
:10402000056D6560446D14B1846DC56D6560446C4B
:1040300004F01F05066C0124AC40746004686360E2
:104040008368102B05D0036899600368DA6070BC40
:10405000704703689A600368D960F8E703680C4A00
:10406000934213D80B49DBB2083B0B4AA2FB032354
:10407000426C22F003020A448264084AC264C3F319
:104080000413012202FA03F3036570470449EAE7C7
:104090000704024000080240CDCCCCCC800802408E
:1040A000200802400379074A1A4492004265064AF2
:1040B0008265013B03F01F03012202FA03F3C3658B
:1040C000704700BF3F8200104009024000285BD0CB
:1040D00010B5044601682D4B99423DD82C4B0B443A
:1040E0002C4AA2FB03231B099B0043642A4B036455
:1040F000022384F825300A6822F4FF4222F070027D
:10410000A368E06803432069034360690343A0692F
:104110000343E0690343206A034313430B602046D3
:10412000FFF79CFFA368B3F5804F20D0A36C2279E2
:104130001A60E36C226D5A606368013B032B19D946
:1041400000236365A365E3650020E063012384F831
:10415000253084F8240010BD104B0B440D4AA2FBFF
:1041600003231B099B0043640D4B0364C0E700233A
:104170006360DBE72046FFF795FF636D00221A605E
:10418000A36DE26D5A60DFE701207047070402402B
:10419000F8FFFDBFCDCCCCCC00000240F8FBFDBF4A
:1041A0000004024038B5044690F82400012841D0AC
:1041B000012084F8240094F82500C0B2012804D01E
:1041C000002384F82430022038BD022084F8250022
:1041D0000020E0632568286820F001002860204660
:1041E000FFF71CFF236BD3B12268136843F00E0363
:1041F0001360A36C1A6812F4803F03D01A6842F46B
:1042000080721A60636D1BB11A6842F480721A6082
:104210002268136843F0010313600020D4E722688A
:10422000136823F0040313602268136843F00A0341
:104230001360DEE70220C7E7034690F82520D2B2DC
:10424000022A09D00422C2630120012283F825201A
:10425000002283F82420704701680A6822F00E02C9
:104260000A60816C0A6822F480720A6001680A6838
:1042700022F001020A60426C02F01F01006C012270
:104280008A404260DA6C196D51605A6D42B1116812
:1042900021F4807111609A6DD96D51600020D4E7CE
:1042A0000020D2E738B5036C196804682568436CB0
:1042B00003F01F0304229A400A4215D015F0040FA0
:1042C00012D0236813F0200F03D1236823F00403D6
:1042D0002360436C03F01F02016C042393404B6086
:1042E000036B03B1984738BD02229A400A421CD0A2
:1042F00015F0020F19D0236813F0200F06D12368A0
:1043000023F00A032360012380F82530436C03F077
:104310001F02016C022393404B60002380F824307D
:10432000C36A002BDFD09847DDE7082202FA03F3C7
:104330000B42D8D015F0080FD5D0236823F00E0318
:104340002360436C03F01F03016C012202FA03F3A4
:104350004B60C26380F82520002380F82430436B33
:10436000002BC0D09847BEE7C06B704710B4154B08
:1043700003640168D1F8802022F4F812446B42EA09
:104380000442C1F88020104A42640168D1F88020BC
:1043900022F07062846B42EA0462C1F880200B4A0A
:1043A0008264D832C264D832026518324265084A43
:1043B000934203D8002243F8042BF8E75DF8044B3E
:1043C000704700BF00A4004070A40040B0A40040AB
:1043D0004FA70040002800F0E28038B5044690F86E
:1043E0005C30D3B12268936923F010039361FEF728
:1043F0002BF9054623689A6912F0080F12D0FEF7D0
:1044000023F9401B0A28F5D9236E43F001032366E4
:10441000032384F85C30012038BD80F85D30FDF75F
:104420001BFBDFE79A6942F001029A61FEF70CF983
:10443000054623689A6912F0010F0DD1FEF704F9C1
:10444000401B0A28F5D9236E43F00103236603239A
:1044500084F85C300120DFE79A6942F002029A6139
:104460002268504B9A4242D0237C012B44D02268D0
:10447000936943F040039361637C012B42D022682F
:10448000936923F480439361A37C012B40D022687D
:10449000936943F4805393612268936923F44073D2
:1044A000A1680B4393612268936923F0A40393618D
:1044B0002268136923F010031361E368012B2DD0E8
:1044C000002B30D0022B53D02268936943F0800335
:1044D00093612268136943F010031361E368032BAF
:1044E00021D12268936943F0200393611BE0626845
:1044F00003F580731A60B7E72268936923F04003DD
:104500009361B9E72268936943F480439361BBE701
:104510002268936923F480539361BDE7226893690D
:1045200043F004039361A3695A1EE369013B1B0234
:1045300043EA4263226A013A13436269013A2168FD
:1045400043EA0243CB61A368B3F5407F16D02268EB
:10455000D2F8C030E16B0B43C2F8C0302046FFF701
:1045600005FF0020A0652066012384F85C3053E736
:104570002268936943F020039361D4E7A36A013B67
:10458000E26A013A43EA0223226B013A43EA021348
:10459000626A013A216843EA0243CB60D7E701200F
:1045A000704700BF00640040704770477047704715
:1045B00070477047704770477047704770472DE9E4
:1045C000F84F044603681A6D02F4E05A5A6D0AEA7D
:1045D000020A1A6D02F007095A6D09EA02091A6DFA
:1045E00002F038085A6D08EA02081E6D06F47106DA
:1045F0005A6D16401F6D07F460275A6D1740D3F8A7
:1046000054B01D6D15F0400F02D01BF0400F41D18A
:1046100015F4807F02D01BF4807F40D1BAF1000FE7
:104620004AD1B9F1000F4FD1B8F1000F54D115F4B0
:10463000007F02D01BF4007F56D115F0800F02D00E
:104640001BF0800F58D115F4005F02D01BF4005FFF
:104650005ED115F4004F02D01BF4004F60D115F469
:10466000804F0AD01BF4804F07D023684FF480425C
:104670001A65236E43F080032366002F58D126B1BC
:1046800023681E65236E1E432666236E002B56D1BB
:10469000BDE8F88F40221A65FFF78EFFB8E7236860
:1046A000D3F8D810D3F8E0204FF48070186511408B
:1046B0002046FFF77EFFB1E72368C3F850A05146BC
:1046C0002046FFF771FFACE72368C3F850904946D6
:1046D0002046FFF76AFFA7E72368C3F850804146EA
:1046E0002046FFF763FFA2E723684FF400721A65C4
:1046F0002046FFF75CFFA0E72368D3F8D410D3F877
:10470000DC208020186511402046FFF751FF9AE712
:1047100023684FF400521A652046FFF74BFF98E7D5
:1047200023684FF400421A652046FFF744FF96E7DE
:1047300023681F6539462046FFF740FF9FE7204664
:10474000FFF73BFFA4E70000F0B482B000235BE07A
:1047500086685F000325BD4026EA0506CD68BD409A
:1047600035438560466826EA04064D68C5F30014A3
:104770009C403443446055E0DD08083550F825700E
:1047800003F00704A6000F24B44027EA04070C69CD
:10479000B4403C4340F8254058E0052400E00024A4
:1047A000B4403C4302354F4E46F825404E4CA56878
:1047B000D44325EA02064F6817F4801F01D042EA6D
:1047C0000506494DAE60ED6804EA05064F6817F42A
:1047D000001F01D042EA0506434DEE606D6804EA11
:1047E00005064F6817F4003F01D042EA05063E4D2A
:1047F0006E602D682C404E6816F4803F01D042EA6E
:104800000504394A146001330A6832FA03F465D0AA
:1048100001249C402240F6D04D6805F00305013D7F
:10482000012D95D94C6804F00304032C09D0C56808
:104830005E000324B44025EA04058C68B4402C4390
:10484000C4604C6804F00304022C95D005685E0037
:104850000324B44025EA04054C6804F00304B44082
:104860002C4304604C6814F4403FCCD01F4C256EA0
:1048700045F001052566246E04F001040194019CB5
:104880009D08AE1C174C54F8267003F00304A600D4
:104890000F24B44027EA0407B0F1904F3FF47FAFF4
:1048A000134CA04212D004F58064A04210D004F54D
:1048B0008064A0420ED004F58064A0420CD004F5C0
:1048C0008064A0423FF469AF062469E7012467E7EA
:1048D000022465E7032463E7042461E702B0F0BC27
:1048E000704700BF0000014000040140001002407A
:1048F000000400480AB1816170478162704700007E
:1049000008B5054B5B69034200D108BD024B5861F5
:10491000FCF72EFBF9E700BF00040140002800F07F
:10492000868010B582B0044690F83A30DBB2052B91
:104930007FD090F83A30DBB2022B7CD03F4B1A6E1E
:1049400042F001021A661B6E03F001030193019B02
:1049500090F83A300BB980F839302046FDF730FA3C
:10496000A368402B25D0602B23D02268136823F046
:104970001003E16A0B43136021680B68304A1A4048
:104980006368A0680343E068034320690343207D14
:10499000012849D000200343606A0343A06A03430F
:1049A000206B43EAC043606B43EA006313430B6030
:1049B00020E02268136823F01003E16A0B431360C0
:1049C00021680B681E4A1A406368A0680343206987
:1049D0000343207D012824D000200343606A034361
:1049E000A06A0343206B43EAC043606B43EA006361
:1049F00013430B6021688B69002B09DB8B6923F063
:104A00003F03A269E0690243206A024313438B61BA
:104A100094F83A3013B9012384F83A30002002B0F8
:104A200010BD4FF48070D8E74FF48070B3E70120D9
:104A300070470120F3E70120F1E700BF00100240BA
:104A4000113E00E0A8B190F83A30DBB2052B12D04D
:104A500090F83A30DBB2012B01D001207047016899
:104A60000B6843F001030B60042380F83A30002008
:104A7000704701207047012070470000002836D1A0
:104A80003E4B1B6803F4C063B3F5806F08D03B4A0C
:104A9000D2F8803023F48073C2F880300020704751
:104AA000364AD2F8803023F48073C2F8803013681D
:104AB00023F4C06343F400731360314B1A6832234C
:104AC00003FB02F32F4AA2FB03239B0C013300E0FC
:104AD000013B2A4A526912F4806F01D0002BF7D1B2
:104AE000264B5B6913F4806F44D100207047B0F50A
:104AF000007F08D0214A136823F4C06343F4806325
:104B00001360002070471D4B1B6803F4C063B3F5AE
:104B1000806F08D0194AD2F8803043F48073C2F80D
:104B2000803000207047154AD2F8803043F48073FB
:104B3000C2F88030136823F4C06343F40073136039
:104B40000F4B1A68322303FB02F30E4AA2FB032326
:104B50009B0C013300E0013B084A526912F4806F5C
:104B600001D0002BF7D1054B5B6913F4806F03D1A3
:104B700000207047032070470320704700700040FA
:104B80000000002083DE1B43024A936843F4804305
:104B90009360704700700040124AD36803F003032B
:104BA000D068C0F303100130032B11D00E4BB3FBC0
:104BB000F0F30C4AD068C0F3062000FB03F0094B69
:104BC000DB68C3F3416301335B00B0FBF3F0704774
:104BD000064BB3FBF0F3D068C0F3062000FB03F0F4
:104BE000EDE700BF001002400024F40000366E0123
:104BF000002800F04F8270B582B00446036813F0BD
:104C0000010F37D0B44A936803F00C03D26802F066
:104C100003020C2B23D0082B23D06368B3F5803F0D
:104C20004ED0B3F5A02F51D0AB4B1A6822F480328E
:104C30001A601A6822F480221A606368002B52D02E
:104C4000FDF702FD0546A44B1B6813F4003F11D18C
:104C5000FDF7FAFC401B6428F5D9032023E2032A60
:104C6000D9D19D4B1B6813F4003F03D06368002B20
:104C700000F01282236813F0020F5DD0964A936809
:104C800003F00C03D26802F003020C2B3AD0042B81
:104C90003AD0E368002B75D08F4A136843F48073D1
:104CA0001360FDF7D1FC05468B4B1B6813F4806F36
:104CB0005FD1FDF7C9FC401B0228F5D90320F2E1C2
:104CC000854A136843F480331360B6E703F18043E9
:104CD000A3F53C331A6842F480221A601A6842F441
:104CE00080321A60A9E7FDF7AFFC05467A4B1B68D6
:104CF00013F4003FBED0FDF7A7FC401B6428F5D994
:104D00000320D0E1022AC2D1734B1B6813F4806FD9
:104D100003D0E368002B00F0C1816F4A536823F091
:104D2000FE43216943EA016353606C4B1868FDF749
:104D300047FC002840F0B481236813F0080F4CD0E2
:104D400063699BB3644AD2F8943043F00103C2F81C
:104D50009430FDF779FC05465F4BD3F8943013F09F
:104D6000020F3AD1FDF770FC401B0228F4D9032052
:104D700099E1594A536823F0FE43216943EA0163EC
:104D80005360D9E7544A136823F480731360FDF726
:104D90005BFC0546504B1B6813F4806FCCD0FDF7CD
:104DA00053FC401B0228F5D903207CE14A4AD2F883
:104DB000943023F00103C2F89430FDF745FC05461A
:104DC000454BD3F8943013F0020F06D0FDF73CFCAE
:104DD000401B0228F4D9032065E1236813F0040F77
:104DE00000F081803C4B9B6D13F0805F36D13A4BD5
:104DF0009A6D42F080529A659B6D03F08053019347
:104E0000019B0125364B1B6813F4807F28D0A368D3
:104E1000012B39D0052B3FD02F4BD3F8902022F017
:104E20000102C3F89020D3F8902022F00402C3F8C6
:104E30009020A368002B3DD0FDF706FC0646264BCC
:104E4000D3F8903013F0020F4CD1FDF7FDFB801B1F
:104E500041F288339842F2D9032024E10025D1E7BA
:104E60001F4A136843F480731360FDF7EDFB064699
:104E70001B4B1B6813F4807FC9D1FDF7E5FB801B3A
:104E80000228F5D903200EE1134AD2F8903043F0FE
:104E90000103C2F89030CCE70F4BD3F8902042F0DA
:104EA0000402C3F89020D3F8902042F00102C3F826
:104EB0009020BEE7FDF7C8FB0646074BD3F89030BD
:104EC00013F0020F0ED0FDF7BFFB801B41F28833B9
:104ED0009842F2D90320E6E00010024008000020CA
:104EE00000700040E5B9236813F0200F35D0A369A6
:104EF000E3B1754AD2F8983043F00103C2F8983014
:104F0000FDF7A2FB0546704BD3F8983013F0020F63
:104F100023D1FDF799FB401B0228F4D90320C2E0FE
:104F2000694A936D23F080539365DCE7664AD2F8B3
:104F3000983023F00103C2F89830FDF785FB054651
:104F4000614BD3F8983013F0020F06D0FDF77CFBCD
:104F5000401B0228F4D90320A5E0E369002B00F0F0
:104F6000A180594A926802F00C020C2A64D0022BEC
:104F700013D0554A136823F080731360FDF764FB68
:104F80000446514B1B6813F0007F4ED0FDF75CFBCD
:104F9000001B0228F5D9032085E04B4A136823F053
:104FA00080731360FDF750FB0546474B1B6813F0F9
:104FB000007F06D0FDF748FB401B0228F5D90320EF
:104FC00071E0414AD36841491940236A606A013857
:104FD00043EA0013A06A43EA0023206B400801382B
:104FE00043EA4053606B4008013843EA4063E06A9B
:104FF00043EAC0630B43D360136843F080731360CC
:10500000D36843F08073D360FDF71EFB04462E4B3C
:105010001B6813F0007F06D1FDF716FB001B02286A
:10502000F5D903203FE000203DE0274AD168284B16
:105030000B40D360002036E0012B36D0224BDB68DA
:1050400003F00301226A914231D103F0F002616A58
:105050000139B2EB011F2CD103F4FE42A16AB2EB7D
:10506000012F28D103F07842E16AB2EBC16F24D15D
:1050700003F4C001226B5208013AB1EB425F1ED12A
:1050800003F0C063626B5208013AB3EB426F18D170
:10509000002008E001207047012004E0012002E028
:1050A000012000E0002002B070BD0120FBE70120DC
:1050B000F9E70120F7E70120F5E70120F3E70120F8
:1050C000F1E70120EFE700BF001002400C809F01D4
:1050D000FCFFEEFE1E4B9B6803F00C03042B32D04A
:1050E0001B4B9B6803F00C03082B2ED0184B9B68BE
:1050F00003F00C030C2B01D000207047144AD36836
:1051000003F00303D068C0F303100130032B11D068
:10511000104BB3FBF0F30E4AD068C0F3062000FB3F
:1051200003F00B4BDB68C3F3416301335B00B0FB5F
:10513000F3F07047084BB3FBF0F3D068C0F30620E0
:1051400000FB03F0EDE7034870470348704700BFDA
:10515000001002400024F40000366E01002800F028
:10516000E680F8B50C460546744B1B6803F00F0348
:105170008B420BD2714A136823F00F030B43136069
:10518000136803F00F038B4240F0D3802E6816F0B3
:1051900001065FD06B68032B15D0022B33D0684B10
:1051A0001B6813F4806F00F0C680FFF793FF654B18
:1051B000984233D9624A936823F0F00343F08003A6
:1051C000936080262BE05E4B1B6813F0007F01D1BB
:1051D00001208BE0FFF7E0FC5A4B98421AD9584B5C
:1051E0009B6813F0F00F05D02E6816F0020616D05B
:1051F000AB688BB9524A936823F0F00343F0800305
:10520000936080260BE04E4B1B6813F4003FCCD11B
:1052100001206BE0002602E0002600E00026484A5C
:10522000936823F0030369680B439360FDF70CFA5E
:105230000746434B9B6803F00C036A68B3EB820F8D
:1052400008D0FDF701FAC01B41F288339842F0D92B
:1052500003204BE02B6813F0020F48D013F0040F2B
:1052600004D0374A936843F4E06393602B6813F0EB
:10527000080F06D0324A936823F47C5343F4E0636A
:1052800093602F4A936823F0F003A9680B4393605F
:105290002A4B1B6803F00F03A34230D82B6813F08E
:1052A000040F06D0264A936823F4E063E9680B43B1
:1052B00093602B6813F0080F07D0214A936823F4FA
:1052C0006053296943EAC1039360FFF703FF1C4B56
:1052D0009B68C3F303131C4AD35C03F01F03D8403D
:1052E0001A4B18601A4B1868FDF76AF9F8BD802E42
:1052F000CED1134A936823F0F0039360C8E70F4AB6
:10530000136823F00F0323431360FDF79DF906464E
:105310000A4B1B6803F00F03A342BFD0FDF794F9BB
:10532000801B41F288339842F2D90320DEE7012046
:1053300070470120DAE70120D8E700BF00200240D3
:105340000010024000B4C40488AE00080000002031
:1053500008000020014B1868704700BF00000020C3
:1053600008B5FFF7F7FF054B9B68C3F30223044A18
:10537000D35C03F01F03D84008BD00BF00100240FB
:1053800098AE000808B5FFF7E5FF054B9B68C3F32F
:10539000C223044AD35C03F01F03D84008BD00BFFA
:1053A0000010024098AE0008F0B583B004460368D0
:1053B00013F4002F69D0B34B9B6D13F0805F1ED1A7
:1053C000B04B9A6D42F080529A659B6D03F080530A
:1053D0000193019B0126AC4A136843F48073136068
:1053E000FDF732F90546A84B1B6813F4807F08D1FE
:1053F000FDF72AF9401B0228F5D9032502E0002613
:10540000E9E7002545BB9F4BD3F8903013F4407378
:1054100015D0226C9A4212D09A4AD2F8903023F4D6
:105420004073D2F8901041F48031C2F89010D2F855
:10543000901021F48031C2F89010C2F8903013F02F
:10544000010F10D145B98F4AD2F8903023F4407340
:10545000216C0B43C2F89030C6B18A4A936D23F099
:105460008053936512E0FDF7EFF80746854BD3F8BC
:10547000903013F0020FE5D1FDF7E6F8C01B41F2C2
:1054800088339842F2D90325DCE70025236813F01E
:10549000010F08D07B4AD2F8883023F003036168FB
:1054A0000B43C2F88830236813F0020F08D0754A06
:1054B000D2F8883023F00C03A1680B43C2F888307F
:1054C000236813F0040F08D06E4AD2F8883023F016
:1054D0003003E1680B43C2F88830236813F0080FEB
:1054E00008D0684AD2F8883023F0C00321690B4302
:1054F000C2F88830236813F0200F08D0614AD2F830
:10550000883023F4406361690B43C2F88830236814
:1055100013F0400F08D05B4AD2F8883023F4405390
:10552000A1690B43C2F88830236813F0800F08D0BC
:10553000544AD2F8883023F44043E1690B43C2F85F
:105540008830236813F4807F08D04E4AD2F8883020
:1055500023F44033216A0B43C2F88830236813F4E4
:10556000007F08D0474AD2F8883023F44023616A8C
:105570000B43C2F88830236813F4806F0CD0414A83
:10558000D2F8883023F44013A16A0B43C2F8883064
:10559000A36AB3F5801F57D0236813F4006F0CD0B3
:1055A000384AD2F8883023F44003E16A0B43C2F84A
:1055B0008830E36AB3F5800F4BD0236813F4805F23
:1055C0000CD0304AD2F8883023F04073216B0B4363
:1055D000C2F88830236BB3F1807F3FD0236813F487
:1055E000005F0CD0274AD2F8883023F04063616B0B
:1055F0000B43C2F88830636BB3F1006F33D023687C
:1056000013F4804F0CD01F4AD2F8883023F0406347
:10561000A16B0B43C2F88830A36BB3F1006F27D0A6
:10562000236813F4004F0CD0164AD2F8883023F0C8
:105630004053E16B0B43C2F88830E36BB3F1805FFA
:105640001BD0284603B0F0BDD36843F48013D36069
:10565000A2E7D36843F48013D360AEE7D36843F482
:105660008013D360BAE7D36843F48013D360C6E7EE
:10567000D36843F48013D360D2E7D36843F4803314
:10568000D360DEE7001002400070004030B4036ACF
:10569000026A22F0010202624468826922F48032C6
:1056A00022F073020D682A4323F002038D682B4316
:1056B0001C4DA8420FD005F50065A8420BD005F59A
:1056C0004065A84207D005F58065A84203D005F5DE
:1056D0008065A84205D123F00803CD682B4323F051
:1056E0000403104DA8420FD005F50065A8420BD069
:1056F00005F54065A84207D005F58065A84203D0AE
:1057000005F58065A84205D124F440754C692C4309
:105710008D692C43446082614A684263036230BCF5
:10572000704700BF002C014030B4036A026A22F4C3
:10573000807202624468C26922F4803222F07302ED
:105740000D682A4323F400738D6843EA0523184D3E
:10575000A84203D005F50065A84206D123F40063F2
:10576000CD6843EA052323F48063114DA8420FD08E
:1057700005F50065A8420BD005F54065A84207D0A5
:1057800005F58065A84203D005F58065A84207D1DC
:1057900024F440544D6944EA05148D6944EA051423
:1057A0004460C2614A68C263036230BC704700BF94
:1057B000002C014030B4036A026A22F48052026273
:1057C0004468C26922F0807222F4E6420D6842EA1F
:1057D000052223F400538D6843EA0533174DA84290
:1057E00003D005F50065A84206D123F40043CD6837
:1057F00043EA053323F48043104DA8420FD005F54A
:105800000065A8420BD005F54065A84207D005F514
:105810008065A84203D005F58065A84207D124F42D
:1058200040444D6944EA85148D6944EA8514446016
:10583000C2614A680264036230BC7047002C0140B8
:1058400030B4036A026A22F4803202624468026D54
:1058500022F4803222F070020D682A4323F40033D0
:105860008D6843EA05430F4DA8420FD005F500654A
:10587000A8420BD005F54065A84207D005F5806524
:10588000A84203D005F58065A84204D124F48034F1
:105890004D6944EA0524446002654A6882640362F3
:1058A00030BC7047002C014030B4036A026A22F415
:1058B000801202624468026D22F0807222F4E0429B
:1058C0000D6842EA052223F400138D6843EA05536C
:1058D0000F4DA8420FD005F50065A8420BD005F585
:1058E0004065A84207D005F58065A84203D005F5BC
:1058F0008065A84204D124F480244D6944EA8524BB
:10590000446002654A68C264036230BC704700BFED
:10591000002C014030B4036A056A25F001050562D8
:10592000846924F0F00444EA021423F00A030B43D0
:105930008461036230BC704730B4036A056A25F0A5
:1059400010050562846924F4704444EA023423F0AB
:10595000A00343EA01138461036230BC704783688B
:1059600023F4401323F070030B4343F007038360D9
:1059700070477047704770477047704770B505466D
:105980000368DE681C6914F0020F10D016F0020FD5
:105990000DD06FF002021A610123037703689B693F
:1059A00013F0030F7CD0FFF7E6FF00232B7714F0F2
:1059B000040F12D016F0040F0FD02B686FF0040202
:1059C0001A6102232B772B689B6913F4407F6DD0FB
:1059D0002846FFF7D0FF00232B7714F0080F12D0D2
:1059E00016F0080F0FD02B686FF008021A6104231D
:1059F0002B772B68DB6913F0030F5ED02846FFF787
:105A0000BAFF00232B7714F0100F12D016F0100FEE
:105A10000FD02B686FF010021A6108232B772B68C8
:105A2000DB6913F4407F4FD02846FFF7A4FF002323
:105A30002B7714F0010F02D016F0010F4BD114F4A4
:105A4000025F02D016F0800F4DD114F4807F02D097
:105A500016F0800F4FD114F0400F02D016F0400F17
:105A600051D114F0200F02D016F0200F53D114F4AE
:105A7000801F02D016F4801F55D114F4001F02D0ED
:105A800016F4001F57D114F4800F02D016F4800FC3
:105A900059D114F4000F02D016F4000F5BD170BD81
:105AA000FFF768FF2846FFF767FF7EE72846FFF706
:105AB00061FF2846FFF760FF8DE72846FFF75AFF92
:105AC0002846FFF759FF9CE72846FFF753FF284673
:105AD000FFF752FFABE72B686FF001021A6128460F
:105AE00002F056F9ABE72B686FF402521A612846B0
:105AF00000F0D9FCA9E72B686FF480721A61284680
